{"abi":[{"type":"constructor","inputs":[{"name":"_owner","type":"address","internalType":"address"}],"stateMutability":"nonpayable"},{"type":"function","name":"acceptOwnership","inputs":[],"outputs":[],"stateMutability":"nonpayable"},{"type":"function","name":"addValidator","inputs":[{"name":"user","type":"address","internalType":"address"}],"outputs":[{"name":"","type":"bool","internalType":"bool"}],"stateMutability":"nonpayable"},{"type":"function","name":"getValidators","inputs":[],"outputs":[{"name":"","type":"address[]","internalType":"address[]"}],"stateMutability":"view"},{"type":"function","name":"initialize","inputs":[{"name":"validators","type":"address[]","internalType":"address[]"}],"outputs":[],"stateMutability":"nonpayable"},{"type":"function","name":"isValidator","inputs":[{"name":"user","type":"address","internalType":"address"}],"outputs":[{"name":"","type":"bool","internalType":"bool"}],"stateMutability":"view"},{"type":"function","name":"owner","inputs":[],"outputs":[{"name":"","type":"address","internalType":"address"}],"stateMutability":"view"},{"type":"function","name":"pendingOwner","inputs":[],"outputs":[{"name":"","type":"address","internalType":"address"}],"stateMutability":"view"},{"type":"function","name":"removeValidator","inputs":[{"name":"user","type":"address","internalType":"address"}],"outputs":[{"name":"","type":"bool","internalType":"bool"}],"stateMutability":"nonpayable"},{"type":"function","name":"renounceOwnership","inputs":[],"outputs":[],"stateMutability":"nonpayable"},{"type":"function","name":"setValidators","inputs":[{"name":"users","type":"address[]","internalType":"address[]"}],"outputs":[],"stateMutability":"nonpayable"},{"type":"function","name":"transferOwnership","inputs":[{"name":"newOwner","type":"address","internalType":"address"}],"outputs":[],"stateMutability":"nonpayable"},{"type":"function","name":"validateMessageWithSupermajority","inputs":[{"name":"ethSignedMessageHash","type":"bytes32","internalType":"bytes32"},{"name":"signatures","type":"bytes[]","internalType":"bytes[]"}],"outputs":[],"stateMutability":"view"},{"type":"function","name":"validatorsSize","inputs":[],"outputs":[{"name":"","type":"uint256","internalType":"uint256"}],"stateMutability":"view"},{"type":"event","name":"OwnershipTransferStarted","inputs":[{"name":"previousOwner","type":"address","indexed":true,"internalType":"address"},{"name":"newOwner","type":"address","indexed":true,"internalType":"address"}],"anonymous":false},{"type":"event","name":"OwnershipTransferred","inputs":[{"name":"previousOwner","type":"address","indexed":true,"internalType":"address"},{"name":"newOwner","type":"address","indexed":true,"internalType":"address"}],"anonymous":false},{"type":"error","name":"ECDSAInvalidSignature","inputs":[]},{"type":"error","name":"ECDSAInvalidSignatureLength","inputs":[{"name":"length","type":"uint256","internalType":"uint256"}]},{"type":"error","name":"ECDSAInvalidSignatureS","inputs":[{"name":"s","type":"bytes32","internalType":"bytes32"}]},{"type":"error","name":"InvalidValidatorOrSignatures","inputs":[]},{"type":"error","name":"NoSupermajority","inputs":[]},{"type":"error","name":"NonUniqueOrUnorderedSignatures","inputs":[]},{"type":"error","name":"OwnableInvalidOwner","inputs":[{"name":"owner","type":"address","internalType":"address"}]},{"type":"error","name":"OwnableUnauthorizedAccount","inputs":[{"name":"account","type":"address","internalType":"address"}]}],"bytecode":{"object":"0x60803460cc57601f610bf038819003918201601f19168301916001600160401b0383118484101760d15780849260209460405283398101031260cc57516001600160a01b0381169081900360cc57801560b657600154600080546001600160a01b031981168417825560405193916001600160a01b03909116907f8be0079c531659141344cd1fd0a4f28419497f9722a3daafe3b4186f6b6457e09080a36001600160a81b031916600155610b0890816100e88239f35b631e4fbdf760e01b600052600060045260246000fd5b600080fd5b634e487b7160e01b600052604160045260246000fdfe6080604052600436101561001257600080fd5b60003560e01c806340a141ff146107295780634d238c8e146106f0578063715018a61461068b57806379ba5097146106025780638da5cb5b146105d95780639300c926146104ea578063a224cee714610400578063b7ab4db51461033d578063d3de131d146101b4578063e30c39781461018b578063e36d52651461016d578063f2fde38b146100f95763facd743b146100ab57600080fd5b346100f45760203660031901126100f4576004356001600160a01b038116908190036100f4576100ea6020916000526003602052604060002054151590565b6040519015158152f35b600080fd5b346100f45760203660031901126100f4576004356001600160a01b038116908190036100f4576101276107cd565b600180546001600160a01b03191682179055600080546001600160a01b0316907f38d16b8cac22d99fc7c124b9cd0de2d3fa1faef420bfe791d8c362d765e227009080a3005b346100f45760003660031901126100f4576020600254604051908152f35b346100f45760003660031901126100f4576001546040516001600160a01b039091168152602090f35b346100f45760403660031901126100f45760043560243567ffffffffffffffff81116100f4576101e8903690600401610762565b9091600036849003601e1901815b848310156102e3576000908360051b870135838112156102df578701803567ffffffffffffffff81116102db576020820181360381136102d75760405192610248601f8401601f1916602001856107e1565b82845260208336920101116102d75791846020836102749461027d989796838601378301015287610979565b909491946109b5565b6001600160a01b0383811691168111156102c8576102a8906000526003602052604060002054151590565b156102b957506001909201916101f6565b63388063eb60e11b8152600490fd5b6302f7e52760e21b8252600482fd5b8480fd5b8380fd5b8280fd5b8460038102908082046003149015171561032757600254908160011b918083046002149015171561032757111561031657005b631023582160e11b60005260046000fd5b634e487b7160e01b600052601160045260246000fd5b346100f45760003660031901126100f4576040518060206002549283815201809260026000527f405787fa12a823e0f2b7631cc41b3ba8828b3321ca811111fa75cd3aa3bb5ace9060005b8181106103ea575050508161039e9103826107e1565b6040519182916020830190602084525180915260408301919060005b8181106103c8575050500390f35b82516001600160a01b03168452859450602093840193909201916001016103ba565b8254845260209093019260019283019201610388565b346100f45760203660031901126100f45760043567ffffffffffffffff81116100f457610431903690600401610762565b6104396107cd565b60015460ff8160a01c166104975760ff60a01b1916600160a01b1760015560005b81811061046357005b8061049061047c6104776001948688610793565b6107b9565b6104846107cd565b838060a01b0316610919565b500161045a565b60405162461bcd60e51b815260206004820152602560248201527f56616c696461746f724d616e616765723a20616c726561647920696e697469616044820152641b1a5e995960da1b6064820152608490fd5b346100f45760203660031901126100f45760043567ffffffffffffffff81116100f45761051b903690600401610762565b6105236107cd565b600254805b610562575060005b81811061053957005b60019061055b6001600160a01b03610555610477848789610793565b16610919565b5001610530565b60001981018181116103275760009060025411156105c557600290527f405787fa12a823e0f2b7631cc41b3ba8828b3321ca811111fa75cd3aa3bb5acd8101546105b4906001600160a01b0316610831565b508015610327576000190180610528565b634e487b7160e01b81526032600452602490fd5b346100f45760003660031901126100f4576000546040516001600160a01b039091168152602090f35b346100f45760003660031901126100f457600154336001600160a01b039091160361067657600180546001600160a01b03199081169091556000805433928116831782556001600160a01b0316907f8be0079c531659141344cd1fd0a4f28419497f9722a3daafe3b4186f6b6457e09080a3005b63118cdaa760e01b6000523360045260246000fd5b346100f45760003660031901126100f4576106a46107cd565b600180546001600160a01b0319908116909155600080549182168155906001600160a01b03167f8be0079c531659141344cd1fd0a4f28419497f9722a3daafe3b4186f6b6457e08280a3005b346100f45760203660031901126100f4576004356001600160a01b038116908190036100f4576100ea6020916107246107cd565b610919565b346100f45760203660031901126100f4576004356001600160a01b038116908190036100f4576100ea60209161075d6107cd565b610831565b9181601f840112156100f45782359167ffffffffffffffff83116100f4576020808501948460051b0101116100f457565b91908110156107a35760051b0190565b634e487b7160e01b600052603260045260246000fd5b356001600160a01b03811681036100f45790565b6000546001600160a01b0316330361067657565b90601f8019910116810190811067ffffffffffffffff82111761080357604052565b634e487b7160e01b600052604160045260246000fd5b80548210156107a35760005260206000200190600090565b600081815260036020526040902054801561091257600019810181811161032757600254600019810191908211610327578181036108c1575b50505060025480156108ab5760001901610885816002610819565b8154906000199060031b1b19169055600255600052600360205260006040812055600190565b634e487b7160e01b600052603160045260246000fd5b6108fa6108d26108e3936002610819565b90549060031b1c9283926002610819565b819391549060031b91821b91600019901b19161790565b9055600052600360205260406000205538808061086a565b5050600090565b8060005260036020526040600020541560001461097357600254680100000000000000008110156108035761095a6108e38260018594016002556002610819565b9055600254906000526003602052604060002055600190565b50600090565b81519190604183036109aa576109a392506020820151906060604084015193015160001a90610a3d565b9192909190565b505060009160029190565b9190916004811015610a2757806109cb57509050565b6000600182036109e65763f645eedf60e01b60005260046000fd5b5060028103610a04578263fce698f760e01b60005260045260246000fd5b9091600360009214610a14575050565b6335e2f38360e21b825260045260249150fd5b634e487b7160e01b600052602160045260246000fd5b91907f7fffffffffffffffffffffffffffffff5d576e7357a4501ddfe92f46681b20a08411610ac6579160209360809260ff60009560405194855216868401526040830152606082015282805260015afa15610aba576000516001600160a01b03811615610aae5790600090600090565b50600090600190600090565b6040513d6000823e3d90fd5b5050506000916003919056fea264697066735822122089dcfd5195f65084d2272f645d21d3d15ab2a2e29b7f3f7baf8569e1142d5b1d64736f6c634300081a0033","linkReferences":{}},"methodIdentifiers":{"acceptOwnership()":"79ba5097","addValidator(address)":"4d238c8e","getValidators()":"b7ab4db5","initialize(address[])":"a224cee7","isValidator(address)":"facd743b","owner()":"8da5cb5b","pendingOwner()":"e30c3978","removeValidator(address)":"40a141ff","renounceOwnership()":"715018a6","setValidators(address[])":"9300c926","transferOwnership(address)":"f2fde38b","validateMessageWithSupermajority(bytes32,bytes[])":"d3de131d","validatorsSize()":"e36d5265"},"id":49}