{"abi":[{"type":"constructor","inputs":[{"name":"_owner","type":"address","internalType":"address"}],"stateMutability":"nonpayable"},{"type":"function","name":"acceptOwnership","inputs":[],"outputs":[],"stateMutability":"nonpayable"},{"type":"function","name":"addValidator","inputs":[{"name":"user","type":"address","internalType":"address"}],"outputs":[{"name":"","type":"bool","internalType":"bool"}],"stateMutability":"nonpayable"},{"type":"function","name":"getValidators","inputs":[],"outputs":[{"name":"","type":"address[]","internalType":"address[]"}],"stateMutability":"view"},{"type":"function","name":"initialize","inputs":[{"name":"validators","type":"address[]","internalType":"address[]"}],"outputs":[],"stateMutability":"nonpayable"},{"type":"function","name":"isValidator","inputs":[{"name":"user","type":"address","internalType":"address"}],"outputs":[{"name":"","type":"bool","internalType":"bool"}],"stateMutability":"view"},{"type":"function","name":"owner","inputs":[],"outputs":[{"name":"","type":"address","internalType":"address"}],"stateMutability":"view"},{"type":"function","name":"pendingOwner","inputs":[],"outputs":[{"name":"","type":"address","internalType":"address"}],"stateMutability":"view"},{"type":"function","name":"removeValidator","inputs":[{"name":"user","type":"address","internalType":"address"}],"outputs":[{"name":"","type":"bool","internalType":"bool"}],"stateMutability":"nonpayable"},{"type":"function","name":"renounceOwnership","inputs":[],"outputs":[],"stateMutability":"nonpayable"},{"type":"function","name":"setValidators","inputs":[{"name":"users","type":"address[]","internalType":"address[]"}],"outputs":[],"stateMutability":"nonpayable"},{"type":"function","name":"transferOwnership","inputs":[{"name":"newOwner","type":"address","internalType":"address"}],"outputs":[],"stateMutability":"nonpayable"},{"type":"function","name":"validatorsSize","inputs":[],"outputs":[{"name":"","type":"uint256","internalType":"uint256"}],"stateMutability":"view"},{"type":"event","name":"OwnershipTransferStarted","inputs":[{"name":"previousOwner","type":"address","indexed":true,"internalType":"address"},{"name":"newOwner","type":"address","indexed":true,"internalType":"address"}],"anonymous":false},{"type":"event","name":"OwnershipTransferred","inputs":[{"name":"previousOwner","type":"address","indexed":true,"internalType":"address"},{"name":"newOwner","type":"address","indexed":true,"internalType":"address"}],"anonymous":false},{"type":"error","name":"OwnableInvalidOwner","inputs":[{"name":"owner","type":"address","internalType":"address"}]},{"type":"error","name":"OwnableUnauthorizedAccount","inputs":[{"name":"account","type":"address","internalType":"address"}]}],"bytecode":{"object":"0x60806040526001805460ff60a01b1916905534801561001d57600080fd5b506040516109cf3803806109cf83398101604081905261003c916100e7565b806001600160a01b03811661006b57604051631e4fbdf760e01b81526000600482015260240160405180910390fd5b6100748161007b565b5050610117565b600180546001600160a01b031916905561009481610097565b50565b600080546001600160a01b038381166001600160a01b0319831681178455604051919092169283917f8be0079c531659141344cd1fd0a4f28419497f9722a3daafe3b4186f6b6457e09190a35050565b6000602082840312156100f957600080fd5b81516001600160a01b038116811461011057600080fd5b9392505050565b6108a9806101266000396000f3fe608060405234801561001057600080fd5b50600436106100b45760003560e01c8063a224cee711610071578063a224cee71461013e578063b7ab4db514610151578063e30c397814610166578063e36d526514610177578063f2fde38b1461018d578063facd743b146101a057600080fd5b806340a141ff146100b95780634d238c8e146100e1578063715018a6146100f457806379ba5097146100fe5780638da5cb5b146101065780639300c9261461012b575b600080fd5b6100cc6100c736600461071c565b6101b3565b60405190151581526020015b60405180910390f35b6100cc6100ef36600461071c565b6101ce565b6100fc6101e3565b005b6100fc6101f7565b6000546001600160a01b03165b6040516001600160a01b0390911681526020016100d8565b6100fc610139366004610745565b610240565b6100fc61014c366004610745565b61029d565b61015961035f565b6040516100d891906107ba565b6001546001600160a01b0316610113565b61017f610370565b6040519081526020016100d8565b6100fc61019b36600461071c565b61037c565b6100cc6101ae36600461071c565b6103ed565b60006101bd6103fa565b6101c8600283610427565b92915050565b60006101d86103fa565b6101c8600283610443565b6101eb6103fa565b6101f56000610458565b565b60015433906001600160a01b031681146102345760405163118cdaa760e01b81526001600160a01b03821660048201526024015b60405180910390fd5b61023d81610458565b50565b6102486103fa565b610250610471565b8060005b818110156102975761028e84848381811061027157610271610807565b9050602002016020810190610286919061071c565b600290610443565b50600101610254565b50505050565b6102a56103fa565b600154600160a01b900460ff161561030d5760405162461bcd60e51b815260206004820152602560248201527f56616c696461746f724d616e616765723a20616c726561647920696e697469616044820152641b1a5e995960da1b606482015260840161022b565b6001805460ff60a01b1916600160a01b1790558060005b818110156102975761035684848381811061034157610341610807565b90506020020160208101906100ef919061071c565b50600101610324565b606061036b60026104bf565b905090565b600061036b60026104cc565b6103846103fa565b600180546001600160a01b0383166001600160a01b031990911681179091556103b56000546001600160a01b031690565b6001600160a01b03167f38d16b8cac22d99fc7c124b9cd0de2d3fa1faef420bfe791d8c362d765e2270060405160405180910390a350565b60006101c86002836104d6565b6000546001600160a01b031633146101f55760405163118cdaa760e01b815233600482015260240161022b565b600061043c836001600160a01b0384166104f8565b9392505050565b600061043c836001600160a01b0384166105eb565b600180546001600160a01b031916905561023d8161063a565b600061047d60026104cc565b9050805b80156104bb576104a86104a0610498600184610833565b60029061068a565b600290610427565b50806104b381610846565b915050610481565b5050565b6060600061043c83610696565b60006101c8825490565b6001600160a01b0381166000908152600183016020526040812054151561043c565b600081815260018301602052604081205480156105e157600061051c600183610833565b855490915060009061053090600190610833565b905080821461059557600086600001828154811061055057610550610807565b906000526020600020015490508087600001848154811061057357610573610807565b6000918252602080832090910192909255918252600188019052604090208390555b85548690806105a6576105a661085d565b6001900381819060005260206000200160009055905585600101600086815260200190815260200160002060009055600193505050506101c8565b60009150506101c8565b6000818152600183016020526040812054610632575081546001818101845560008481526020808220909301849055845484825282860190935260409020919091556101c8565b5060006101c8565b600080546001600160a01b038381166001600160a01b0319831681178455604051919092169283917f8be0079c531659141344cd1fd0a4f28419497f9722a3daafe3b4186f6b6457e09190a35050565b600061043c83836106f2565b6060816000018054806020026020016040519081016040528092919081815260200182805480156106e657602002820191906000526020600020905b8154815260200190600101908083116106d2575b50505050509050919050565b600082600001828154811061070957610709610807565b9060005260206000200154905092915050565b60006020828403121561072e57600080fd5b81356001600160a01b038116811461043c57600080fd5b6000806020838503121561075857600080fd5b823567ffffffffffffffff8082111561077057600080fd5b818501915085601f83011261078457600080fd5b81358181111561079357600080fd5b8660208260051b85010111156107a857600080fd5b60209290920196919550909350505050565b6020808252825182820181905260009190848201906040850190845b818110156107fb5783516001600160a01b0316835292840192918401916001016107d6565b50909695505050505050565b634e487b7160e01b600052603260045260246000fd5b634e487b7160e01b600052601160045260246000fd5b818103818111156101c8576101c861081d565b6000816108555761085561081d565b506000190190565b634e487b7160e01b600052603160045260246000fdfea2646970667358221220ddf1dabef08e7eb029d1c9321e7e62b3fcc30494a2477a96c4641153bf8f370764736f6c63430008170033","linkReferences":{}},"methodIdentifiers":{"acceptOwnership()":"79ba5097","addValidator(address)":"4d238c8e","getValidators()":"b7ab4db5","initialize(address[])":"a224cee7","isValidator(address)":"facd743b","owner()":"8da5cb5b","pendingOwner()":"e30c3978","removeValidator(address)":"40a141ff","renounceOwnership()":"715018a6","setValidators(address[])":"9300c926","transferOwnership(address)":"f2fde38b","validatorsSize()":"e36d5265"},"id":24}