{"abi":[{"type":"constructor","inputs":[{"name":"_owner","type":"address","internalType":"address"}],"stateMutability":"nonpayable"},{"type":"function","name":"acceptOwnership","inputs":[],"outputs":[],"stateMutability":"nonpayable"},{"type":"function","name":"addValidator","inputs":[{"name":"user","type":"address","internalType":"address"}],"outputs":[{"name":"","type":"bool","internalType":"bool"}],"stateMutability":"nonpayable"},{"type":"function","name":"getValidators","inputs":[],"outputs":[{"name":"","type":"address[]","internalType":"address[]"}],"stateMutability":"view"},{"type":"function","name":"initialize","inputs":[{"name":"validators","type":"address[]","internalType":"address[]"}],"outputs":[],"stateMutability":"nonpayable"},{"type":"function","name":"isValidator","inputs":[{"name":"user","type":"address","internalType":"address"}],"outputs":[{"name":"","type":"bool","internalType":"bool"}],"stateMutability":"view"},{"type":"function","name":"owner","inputs":[],"outputs":[{"name":"","type":"address","internalType":"address"}],"stateMutability":"view"},{"type":"function","name":"pendingOwner","inputs":[],"outputs":[{"name":"","type":"address","internalType":"address"}],"stateMutability":"view"},{"type":"function","name":"removeValidator","inputs":[{"name":"user","type":"address","internalType":"address"}],"outputs":[{"name":"","type":"bool","internalType":"bool"}],"stateMutability":"nonpayable"},{"type":"function","name":"renounceOwnership","inputs":[],"outputs":[],"stateMutability":"nonpayable"},{"type":"function","name":"setValidators","inputs":[{"name":"users","type":"address[]","internalType":"address[]"}],"outputs":[],"stateMutability":"nonpayable"},{"type":"function","name":"transferOwnership","inputs":[{"name":"newOwner","type":"address","internalType":"address"}],"outputs":[],"stateMutability":"nonpayable"},{"type":"function","name":"validatorsSize","inputs":[],"outputs":[{"name":"","type":"uint256","internalType":"uint256"}],"stateMutability":"view"},{"type":"event","name":"OwnershipTransferStarted","inputs":[{"name":"previousOwner","type":"address","indexed":true,"internalType":"address"},{"name":"newOwner","type":"address","indexed":true,"internalType":"address"}],"anonymous":false},{"type":"event","name":"OwnershipTransferred","inputs":[{"name":"previousOwner","type":"address","indexed":true,"internalType":"address"},{"name":"newOwner","type":"address","indexed":true,"internalType":"address"}],"anonymous":false},{"type":"error","name":"OwnableInvalidOwner","inputs":[{"name":"owner","type":"address","internalType":"address"}]},{"type":"error","name":"OwnableUnauthorizedAccount","inputs":[{"name":"account","type":"address","internalType":"address"}]}],"bytecode":{"object":"0x6080346100ce57601f61095138819003918201601f19168301916001600160401b038311848410176100d3578084926020946040528339810103126100ce57516001600160a01b0390818116908190036100ce5780156100b557600154600080546001600160a01b03198116841782556040519492939216907f8be0079c531659141344cd1fd0a4f28419497f9722a3daafe3b4186f6b6457e09080a36001600160a81b03191660015561086790816100ea8239f35b604051631e4fbdf760e01b815260006004820152602490fd5b600080fd5b634e487b7160e01b600052604160045260246000fdfe6040608081526004908136101561001557600080fd5b600091823560e01c806340a141ff1461059c5780634d238c8e14610559578063715018a6146104f457806379ba5097146104725780638da5cb5b1461044a5780639300c92614610355578063a224cee714610284578063b7ab4db51461019a578063e30c397814610171578063e36d526514610152578063f2fde38b146100e35763facd743b146100a557600080fd5b346100df5760203660031901126100df57356001600160a01b038116908190036100df578282916020945260038452205415159051908152f35b8280fd5b83823461014e57602036600319011261014e57356001600160a01b03818116918290036100df57610112610662565b600180546001600160a01b031916831790558254167f38d16b8cac22d99fc7c124b9cd0de2d3fa1faef420bfe791d8c362d765e227008380a380f35b5080fd5b50503461014e578160031936011261014e576020906002549051908152f35b50503461014e578160031936011261014e5760015490516001600160a01b039091168152602090f35b509134610281578060031936011261028157815180916002549384835260208093018095600284527f405787fa12a823e0f2b7631cc41b3ba8828b3321ca811111fa75cd3aa3bb5ace90845b8682821061026d5750505050849003601f01601f191684019567ffffffffffffffff87118588101761025a575085815282865292518583018190528594938501939290915b82811061023a57505050500390f35b83516001600160a01b03168552869550938101939281019260010161022b565b634e487b7160e01b835260419052602482fd5b8354855290930192600192830192016101e6565b80fd5b5090346100df57610294366105d6565b909161029e610662565b6001936001549160ff8360a01c1661030457505060ff60a01b1916600160a01b17600155835b8181106102cf578480f35b806102fd6102e76102e287948688610628565b61064e565b6102ef610662565b6001600160a01b03166107c6565b50016102c4565b906020608492519162461bcd60e51b8352820152602560248201527f56616c696461746f724d616e616765723a20616c726561647920696e697469616044820152641b1a5e995960da1b6064820152fd5b83823461014e57610365366105d6565b9161036e610662565b600290600254805b6103b357505050825b82811061038a578380f35b6001906103ac6001600160a01b036103a66102e2848888610628565b166107c6565b500161037f565b60001981018181116104375783541115610424578286527f405787fa12a823e0f2b7631cc41b3ba8828b3321ca811111fa75cd3aa3bb5acd810154610400906001600160a01b03166106c5565b508015610411576000190180610376565b634e487b7160e01b865260118252602486fd5b634e487b7160e01b865260328252602486fd5b634e487b7160e01b875260118352602487fd5b50503461014e578160031936011261014e57905490516001600160a01b039091168152602090f35b5090346100df57826003193601126100df57600154916001600160a01b039133838516036104dd5750506001600160a01b031991821660015582543392811683178455167f8be0079c531659141344cd1fd0a4f28419497f9722a3daafe3b4186f6b6457e08380a380f35b60249250519063118cdaa760e01b82523390820152fd5b833461028157806003193601126102815761050d610662565b600180546001600160a01b03199081169091558154908116825581906001600160a01b03167f8be0079c531659141344cd1fd0a4f28419497f9722a3daafe3b4186f6b6457e08280a380f35b50346100df5760203660031901126100df57356001600160a01b0381169290839003610281575061059360209261058e610662565b6107c6565b90519015158152f35b50346100df5760203660031901126100df57356001600160a01b038116929083900361028157506105936020926105d1610662565b6106c5565b9060206003198301126106235760043567ffffffffffffffff9283821161062357806023830112156106235781600401359384116106235760248460051b83010111610623576024019190565b600080fd5b91908110156106385760051b0190565b634e487b7160e01b600052603260045260246000fd5b356001600160a01b03811681036106235790565b6000546001600160a01b0316330361067657565b60405163118cdaa760e01b8152336004820152602490fd5b6002548110156106385760026000527f405787fa12a823e0f2b7631cc41b3ba8828b3321ca811111fa75cd3aa3bb5ace0190600090565b60008181526003602052604081205490919080156107c157600019908082018181116107ad57600254908382019182116107995781810361074e575b505050600254801561073a578101906107198261068e565b909182549160031b1b19169055600255815260036020526040812055600190565b634e487b7160e01b84526031600452602484fd5b61078361075d61076c9361068e565b90549060031b1c92839261068e565b819391549060031b91821b91600019901b19161790565b9055845260036020526040842055388080610701565b634e487b7160e01b86526011600452602486fd5b634e487b7160e01b85526011600452602485fd5b505090565b60008181526003602052604081205461082c576002546801000000000000000081101561081857908261080461076c8460016040960160025561068e565b905560025492815260036020522055600190565b634e487b7160e01b82526041600452602482fd5b90509056fea264697066735822122062ba508b45fa9d0ffa34482f642a1652abc5871c4387b3fa55d7d5443f6285b664736f6c63430008170033","linkReferences":{}},"methodIdentifiers":{"acceptOwnership()":"79ba5097","addValidator(address)":"4d238c8e","getValidators()":"b7ab4db5","initialize(address[])":"a224cee7","isValidator(address)":"facd743b","owner()":"8da5cb5b","pendingOwner()":"e30c3978","removeValidator(address)":"40a141ff","renounceOwnership()":"715018a6","setValidators(address[])":"9300c926","transferOwnership(address)":"f2fde38b","validatorsSize()":"e36d5265"},"id":24}